{
  "contractName": "ChainList",
  "abi": [
    {
      "constant": true,
      "inputs": [
        {
          "name": "",
          "type": "uint256"
        }
      ],
      "name": "articles",
      "outputs": [
        {
          "name": "id",
          "type": "uint256"
        },
        {
          "name": "seller",
          "type": "address"
        },
        {
          "name": "buyer",
          "type": "address"
        },
        {
          "name": "name",
          "type": "string"
        },
        {
          "name": "description",
          "type": "string"
        },
        {
          "name": "price",
          "type": "uint256"
        }
      ],
      "payable": false,
      "stateMutability": "view",
      "type": "function"
    },
    {
      "anonymous": false,
      "inputs": [
        {
          "indexed": true,
          "name": "_id",
          "type": "uint256"
        },
        {
          "indexed": true,
          "name": "_seller",
          "type": "address"
        },
        {
          "indexed": false,
          "name": "_name",
          "type": "string"
        },
        {
          "indexed": false,
          "name": "_price",
          "type": "uint256"
        }
      ],
      "name": "LogSellArticle",
      "type": "event"
    },
    {
      "anonymous": false,
      "inputs": [
        {
          "indexed": true,
          "name": "_id",
          "type": "uint256"
        },
        {
          "indexed": true,
          "name": "_seller",
          "type": "address"
        },
        {
          "indexed": true,
          "name": "_buyer",
          "type": "address"
        },
        {
          "indexed": false,
          "name": "_name",
          "type": "string"
        },
        {
          "indexed": false,
          "name": "_price",
          "type": "uint256"
        }
      ],
      "name": "LogBuyArticle",
      "type": "event"
    },
    {
      "constant": false,
      "inputs": [],
      "name": "kill",
      "outputs": [],
      "payable": false,
      "stateMutability": "nonpayable",
      "type": "function"
    },
    {
      "constant": false,
      "inputs": [
        {
          "name": "_name",
          "type": "string"
        },
        {
          "name": "_description",
          "type": "string"
        },
        {
          "name": "_price",
          "type": "uint256"
        }
      ],
      "name": "sellArticle",
      "outputs": [],
      "payable": false,
      "stateMutability": "nonpayable",
      "type": "function"
    },
    {
      "constant": false,
      "inputs": [
        {
          "name": "_id",
          "type": "uint256"
        }
      ],
      "name": "buyArticle",
      "outputs": [],
      "payable": true,
      "stateMutability": "payable",
      "type": "function"
    },
    {
      "constant": true,
      "inputs": [],
      "name": "getNumberOfArticles",
      "outputs": [
        {
          "name": "",
          "type": "uint256"
        }
      ],
      "payable": false,
      "stateMutability": "view",
      "type": "function"
    },
    {
      "constant": true,
      "inputs": [],
      "name": "getArticlesForSale",
      "outputs": [
        {
          "name": "",
          "type": "uint256[]"
        }
      ],
      "payable": false,
      "stateMutability": "view",
      "type": "function"
    }
  ],
  "bytecode": "0x6080604052600080546001600160a01b03191633179055610c55806100256000396000f3fe6080604052600436106100555760003560e01c80631cc4baa81461005a57806341c0e1b5146100795780637f6be3da1461008e57806389da85d3146100f3578063d26095151461011a578063edcfafe614610256575b600080fd5b6100776004803603602081101561007057600080fd5b503561039e565b005b34801561008557600080fd5b5061007761066a565b34801561009a57600080fd5b506100a36106c4565b60408051602080825283518183015283519192839290830191858101910280838360005b838110156100df5781810151838201526020016100c7565b505050509050019250505060405180910390f35b3480156100ff57600080fd5b506101086107f2565b60408051918252519081900360200190f35b34801561012657600080fd5b506100776004803603606081101561013d57600080fd5b81019060208101813564010000000081111561015857600080fd5b82018360208201111561016a57600080fd5b8035906020019184600183028401116401000000008311171561018c57600080fd5b91908080601f01602080910402602001604051908101604052809392919081815260200183838082843760009201919091525092959493602081019350359150506401000000008111156101df57600080fd5b8201836020820111156101f157600080fd5b8035906020019184600183028401116401000000008311171561021357600080fd5b91908080601f01602080910402602001604051908101604052809392919081815260200183838082843760009201919091525092955050913592506107f8915050565b34801561026257600080fd5b506102806004803603602081101561027957600080fd5b5035610970565b60405180878152602001866001600160a01b03166001600160a01b03168152602001856001600160a01b03166001600160a01b031681526020018060200180602001848152602001838103835286818151815260200191508051906020019080838360005b838110156102fd5781810151838201526020016102e5565b50505050905090810190601f16801561032a5780820380516001836020036101000a031916815260200191505b50838103825285518152855160209182019187019080838360005b8381101561035d578181015183820152602001610345565b50505050905090810190601f16801561038a5780820380516001836020036101000a031916815260200191505b509850505050505050505060405180910390f35b6000600254116103e257604051600160e51b62461bcd028152600401808060200182810382526024815260200180610b8c6024913960400191505060405180910390fd5b6000811180156103f457506002548111155b61043257604051600160e51b62461bcd028152600401808060200182810382526023815260200180610c076023913960400191505060405180910390fd5b600081815260016020526040902060028101546001600160a01b0316156104a35760408051600160e51b62461bcd02815260206004820152601860248201527f41727469636c652077617320616c726561647920736f6c640000000000000000604482015290519081900360640190fd5b60018101546001600160a01b03163314156104f257604051600160e51b62461bcd028152600401808060200182810382526021815260200180610bb06021913960400191505060405180910390fd5b3481600501541461053757604051600160e51b62461bcd02815260040180806020018281038252602e815260200180610b5e602e913960400191505060405180910390fd5b6002810180546001600160a01b0319163317905560018101546040516001600160a01b0391909116903480156108fc02916000818181858888f19350505050158015610587573d6000803e3d6000fd5b5060028082015460018084015460058501546040805160208101839052818152600388018054600019968116156101000296909601909516969096049086018190526001600160a01b0394851695929094169387937f5d28bc06e6f0c45405abfe77bd77236c767f9bd9d044ae2d954a415a2b4823e09390929181906060820190859080156106575780601f1061062c57610100808354040283529160200191610657565b820191906000526020600020905b81548152906001019060200180831161063a57829003601f168201915b5050935050505060405180910390a45050565b6000546001600160a01b031633146106b657604051600160e51b62461bcd028152600401808060200182810382526036815260200180610bd16036913960400191505060405180910390fd5b6000546001600160a01b0316ff5b6060600254600014156106e657506040805160008152602081019091526107ef565b6060600254604051908082528060200260200182016040528015610714578160200160208202803883390190505b509050600060015b600254811161077b576000818152600160205260409020600201546001600160a01b031661077357600081815260016020526040902054835184908490811061076157fe5b60209081029190910101526001909101905b60010161071c565b506060816040519080825280602002602001820160405280156107a8578160200160208202803883390190505b50905060005b828110156107e9578381815181106107c257fe5b60200260200101518282815181106107d657fe5b60209081029190910101526001016107ae565b50925050505b90565b60025490565b6002805460019081018083556040805160c0810182528281523360208083019182526000838501818152606085018c8152608086018c905260a086018b905296825287835294902083518155915195820180546001600160a01b039788166001600160a01b03199182161790915593519682018054979096169690931695909517909355905180519293926108939260038501920190610ac5565b50608082015180516108af916004840191602090910190610ac5565b5060a08201518160050155905050336001600160a01b03166002547fe2ebb0c522a8b90a93f45a5dfd3c0e0516b81519fdf199efe51c474642fe8cec85846040518080602001838152602001828103825284818151815260200191508051906020019080838360005b83811015610930578181015183820152602001610918565b50505050905090810190601f16801561095d5780820380516001836020036101000a031916815260200191505b50935050505060405180910390a3505050565b60016020818152600092835260409283902080548184015460028084015460038501805489516101009982161599909902600019011692909204601f810187900487028801870190985287875292966001600160a01b0392831696929093169491929091830182828015610a255780601f106109fa57610100808354040283529160200191610a25565b820191906000526020600020905b815481529060010190602001808311610a0857829003601f168201915b5050505060048301805460408051602060026001851615610100026000190190941693909304601f8101849004840282018401909252818152949594935090830182828015610ab55780601f10610a8a57610100808354040283529160200191610ab5565b820191906000526020600020905b815481529060010190602001808311610a9857829003601f168201915b5050505050908060050154905086565b828054600181600116156101000203166002900490600052602060002090601f016020900481019282601f10610b0657805160ff1916838001178555610b33565b82800160010185558215610b33579182015b82811115610b33578251825591602001919060010190610b18565b50610b3f929150610b43565b5090565b6107ef91905b80821115610b3f5760008155600101610b4956fe56616c75652070726f766964656420646f6573206e6f74206d61746368207072696365206f662061727469636c6554686572652073686f756c64206265206174206c65617374206f6e652061727469636c6553656c6c65722063616e6e6f742062757920686973206f776e2061727469636c65546869732066756e6374696f6e2063616e206f6e6c792062652063616c6c65642062792074686520636f6e7472616374206f776e657241727469636c652077697468207468697320696420646f6573206e6f74206578697374a165627a7a72305820c695ceff8b4db51b4ef6d6c45a19cc95acad5792c4bdb38d47247af9047521cd0029",
  "source": "pragma solidity >0.4.99 <0.6.0;\n\nimport \"./Ownable.sol\";\n\ncontract ChainList is Ownable {\n    // Custom types\n    struct Article {\n        uint id;\n        address payable seller;\n        address buyer;\n        string name;\n        string description;\n        uint256 price;\n    }\n\n    // State variables\n    mapping(uint => Article) public articles;\n    uint articleCounter;\n    address seller;\n    address buyer;\n    string name;\n    string description;\n    uint256 price;\n\n    // Events\n    event LogSellArticle (\n        uint indexed _id,\n        address indexed _seller,\n        string _name,\n        uint256 _price);\n\n    event LogBuyArticle (\n        uint indexed _id,\n        address indexed _seller,\n        address indexed _buyer,\n        string _name,\n        uint256 _price);\n\n\n    // kill the smart contract\n    function kill() public onlyOwner {\n        selfdestruct(owner);\n    }\n\n    // sell an article\n    function sellArticle(string memory _name, string memory _description, uint256 _price) public {\n        // a new article\n        articleCounter++;\n\n        // store this article\n        articles[articleCounter] = Article(\n            articleCounter,\n            msg.sender,\n            address(0),\n            _name,\n            _description,\n            _price\n        );\n\n        // trigger the event\n        emit LogSellArticle(articleCounter, msg.sender, _name, _price);\n    }\n\n    // buy an article\n    function buyArticle(uint _id) public payable {\n\n        // we check whether there is at least one article\n        require(articleCounter > 0, \"There should be at least one article\");\n\n        // we check whether the article exists\n        require(_id > 0 && _id <= articleCounter, \"Article with this id does not exist\");\n\n        // we retrieve the article\n        Article storage article = articles[_id];\n\n        // we check whether the article has not already been sold\n        require(article.buyer == address(0), \"Article was already sold\");\n\n        // we don't allow the seller to buy his/her own article\n        require(article.seller != msg.sender, \"Seller cannot buy his own article\");\n\n        // we check whether the value sent corresponds to the article price\n        require(article.price == msg.value, \"Value provided does not match price of article\");\n\n        // keep buyer's information\n        article.buyer = msg.sender;\n\n        // the buyer can buy the article\n        article.seller.transfer(msg.value);\n\n        // trigger the event\n        emit LogBuyArticle(_id, article.seller, article.buyer, article.name, article.price);\n    }\n\n    // fetch the number of articles in the contract\n    function getNumberOfArticles() public view returns (uint) {\n        return articleCounter;\n    }\n\n    // fetch and returns all article IDs available for sale\n    function getArticlesForSale() public view returns (uint[]memory) {\n        // we check whether there is at least one article\n        if(articleCounter == 0) {\n            return new uint[](0);\n        }\n\n        // prepare output arrays\n        uint[] memory articleIds = new uint[](articleCounter);\n\n        uint numberOfArticlesForSale = 0;\n        // iterate over articles\n        for (uint i = 1; i <= articleCounter; i++) {\n            // keep only the ID for the article not already sold\n            if (articles[i].buyer == address(0)) {\n                articleIds[numberOfArticlesForSale] = articles[i].id;\n                numberOfArticlesForSale++;\n            }\n        }\n\n        // copy the articleIds array into the smaller forSale array\n        uint[] memory forSale = new uint[](numberOfArticlesForSale);\n        for (uint j = 0; j < numberOfArticlesForSale; j++) {\n            forSale[j] = articleIds[j];\n        }\n        return forSale;\n    }\n}\n",
  "sourcePath": "/home/adeeba/Desktop/chainlist-truffle5/contracts/ChainList.sol",
  "compiler": {
    "name": "solc",
    "version": "0.5.8+commit.23d335f2.Emscripten.clang"
  },
  "schemaVersion": "3.0.16",
  "updatedAt": "2019-10-27T12:38:07.267Z",
  "devdoc": {
    "methods": {}
  },
  "userdoc": {
    "methods": {}
  }
}